{
  "_format": "hh-sol-artifact-1",
  "contractName": "AccountsPayable",
  "sourceName": "contracts/AccountsPayable.sol",
  "abi": [
    {
      "inputs": [
        {
          "internalType": "address",
          "name": "_client",
          "type": "address"
        }
      ],
      "stateMutability": "nonpayable",
      "type": "constructor"
    },
    {
      "anonymous": false,
      "inputs": [
        {
          "indexed": false,
          "internalType": "address",
          "name": "supplier",
          "type": "address"
        },
        {
          "indexed": false,
          "internalType": "uint256",
          "name": "amount",
          "type": "uint256"
        }
      ],
      "name": "FundsWithdrawn",
      "type": "event"
    },
    {
      "anonymous": false,
      "inputs": [
        {
          "indexed": false,
          "internalType": "uint32",
          "name": "invoiceId",
          "type": "uint32"
        },
        {
          "indexed": false,
          "internalType": "string",
          "name": "description",
          "type": "string"
        },
        {
          "indexed": false,
          "internalType": "uint256",
          "name": "amount",
          "type": "uint256"
        },
        {
          "indexed": false,
          "internalType": "uint256",
          "name": "dueDate",
          "type": "uint256"
        },
        {
          "indexed": false,
          "internalType": "address",
          "name": "supplier",
          "type": "address"
        }
      ],
      "name": "InvoiceCreated",
      "type": "event"
    },
    {
      "anonymous": false,
      "inputs": [
        {
          "indexed": false,
          "internalType": "uint32",
          "name": "invoiceId",
          "type": "uint32"
        },
        {
          "indexed": false,
          "internalType": "address",
          "name": "payer",
          "type": "address"
        },
        {
          "indexed": false,
          "internalType": "uint256",
          "name": "amount",
          "type": "uint256"
        }
      ],
      "name": "InvoicePaid",
      "type": "event"
    },
    {
      "inputs": [
        {
          "internalType": "address",
          "name": "",
          "type": "address"
        }
      ],
      "name": "balances",
      "outputs": [
        {
          "internalType": "uint256",
          "name": "",
          "type": "uint256"
        }
      ],
      "stateMutability": "view",
      "type": "function"
    },
    {
      "inputs": [
        {
          "internalType": "uint32",
          "name": "invoiceId",
          "type": "uint32"
        }
      ],
      "name": "checkInvoiceStatus",
      "outputs": [
        {
          "internalType": "bool",
          "name": "isPaid",
          "type": "bool"
        },
        {
          "internalType": "uint256",
          "name": "dueDate",
          "type": "uint256"
        }
      ],
      "stateMutability": "view",
      "type": "function"
    },
    {
      "inputs": [],
      "name": "client",
      "outputs": [
        {
          "internalType": "address",
          "name": "",
          "type": "address"
        }
      ],
      "stateMutability": "view",
      "type": "function"
    },
    {
      "inputs": [
        {
          "internalType": "string",
          "name": "description",
          "type": "string"
        },
        {
          "internalType": "uint256",
          "name": "amount",
          "type": "uint256"
        },
        {
          "internalType": "uint256",
          "name": "dueDate",
          "type": "uint256"
        }
      ],
      "name": "createInvoice",
      "outputs": [],
      "stateMutability": "nonpayable",
      "type": "function"
    },
    {
      "inputs": [
        {
          "internalType": "address",
          "name": "supplier",
          "type": "address"
        }
      ],
      "name": "getPendingInvoices",
      "outputs": [
        {
          "internalType": "uint32[]",
          "name": "",
          "type": "uint32[]"
        }
      ],
      "stateMutability": "view",
      "type": "function"
    },
    {
      "inputs": [
        {
          "internalType": "uint32",
          "name": "",
          "type": "uint32"
        }
      ],
      "name": "invoices",
      "outputs": [
        {
          "internalType": "string",
          "name": "description",
          "type": "string"
        },
        {
          "internalType": "uint256",
          "name": "amount",
          "type": "uint256"
        },
        {
          "internalType": "uint256",
          "name": "dueDate",
          "type": "uint256"
        },
        {
          "internalType": "address payable",
          "name": "supplier",
          "type": "address"
        },
        {
          "internalType": "bool",
          "name": "isPaid",
          "type": "bool"
        }
      ],
      "stateMutability": "view",
      "type": "function"
    },
    {
      "inputs": [
        {
          "internalType": "uint32",
          "name": "invoiceId",
          "type": "uint32"
        }
      ],
      "name": "payInvoice",
      "outputs": [],
      "stateMutability": "payable",
      "type": "function"
    },
    {
      "inputs": [],
      "name": "withdrawFunds",
      "outputs": [],
      "stateMutability": "nonpayable",
      "type": "function"
    }
  ],
  "bytecode": "0x60a060405260008060006101000a81548163ffffffff021916908363ffffffff1602179055503480156200003257600080fd5b50604051620019853803806200198583398181016040528101906200005891906200013e565b3373ffffffffffffffffffffffffffffffffffffffff1660808173ffffffffffffffffffffffffffffffffffffffff168152505080600360006101000a81548173ffffffffffffffffffffffffffffffffffffffff021916908373ffffffffffffffffffffffffffffffffffffffff1602179055505062000170565b600080fd5b600073ffffffffffffffffffffffffffffffffffffffff82169050919050565b60006200010682620000d9565b9050919050565b6200011881620000f9565b81146200012457600080fd5b50565b60008151905062000138816200010d565b92915050565b600060208284031215620001575762000156620000d4565b5b6000620001678482850162000127565b91505092915050565b6080516117fc62000189600039600050506117fc6000f3fe60806040526004361061007b5760003560e01c80634d09084b1161004e5780634d09084b1461013d578063de6d7dfd14610166578063df5342c114610182578063e3f1a28d146101c35761007b565b8063109e94cf1461008057806324600fc3146100ab57806327e235e3146100c25780633a186321146100ff575b600080fd5b34801561008c57600080fd5b50610095610200565b6040516100a29190610bb5565b60405180910390f35b3480156100b757600080fd5b506100c0610226565b005b3480156100ce57600080fd5b506100e960048036038101906100e49190610c10565b610375565b6040516100f69190610c56565b60405180910390f35b34801561010b57600080fd5b5061012660048036038101906101219190610cad565b61038d565b604051610134929190610cf5565b60405180910390f35b34801561014957600080fd5b50610164600480360381019061015f9190610e90565b6103d4565b005b610180600480360381019061017b9190610cad565b61056c565b005b34801561018e57600080fd5b506101a960048036038101906101a49190610cad565b61081b565b6040516101ba959493929190610f9f565b60405180910390f35b3480156101cf57600080fd5b506101ea60048036038101906101e59190610c10565b610906565b6040516101f791906110b7565b60405180910390f35b600360009054906101000a900473ffffffffffffffffffffffffffffffffffffffff1681565b6000600260003373ffffffffffffffffffffffffffffffffffffffff1673ffffffffffffffffffffffffffffffffffffffff168152602001908152602001600020549050600081116102ad576040517f08c379a00000000000000000000000000000000000000000000000000000000081526004016102a490611125565b60405180910390fd5b6000600260003373ffffffffffffffffffffffffffffffffffffffff1673ffffffffffffffffffffffffffffffffffffffff168152602001908152602001600020819055503373ffffffffffffffffffffffffffffffffffffffff166108fc829081150290604051600060405180830381858888f19350505050158015610338573d6000803e3d6000fd5b507feaff4b37086828766ad3268786972c0cd24259d4c87a80f9d3963a3c3d999b0d338260405161036a929190611145565b60405180910390a150565b60026020528060005260406000206000915090505481565b6000806000600160008563ffffffff1663ffffffff16815260200190815260200160002090508060030160149054906101000a900460ff1681600201549250925050915091565b60008081819054906101000a900463ffffffff16809291906103f59061119d565b91906101000a81548163ffffffff021916908363ffffffff160217905550506040518060a001604052808481526020018381526020018281526020013373ffffffffffffffffffffffffffffffffffffffff16815260200160001515815250600160008060009054906101000a900463ffffffff1663ffffffff1663ffffffff168152602001908152602001600020600082015181600001908161049991906113d5565b50602082015181600101556040820151816002015560608201518160030160006101000a81548173ffffffffffffffffffffffffffffffffffffffff021916908373ffffffffffffffffffffffffffffffffffffffff16021790555060808201518160030160146101000a81548160ff0219169083151502179055509050507f949c21962535f5ee646ba625419807fcf146afa7f6952082fddb1c34d4b7243a60008054906101000a900463ffffffff168484843360405161055f9594939291906114b6565b60405180910390a1505050565b600360009054906101000a900473ffffffffffffffffffffffffffffffffffffffff1673ffffffffffffffffffffffffffffffffffffffff163373ffffffffffffffffffffffffffffffffffffffff16146105fc576040517f08c379a00000000000000000000000000000000000000000000000000000000081526004016105f39061155c565b60405180910390fd5b6000600160008363ffffffff1663ffffffff16815260200190815260200160002090506000816001015411610666576040517f08c379a000000000000000000000000000000000000000000000000000000000815260040161065d906115c8565b60405180910390fd5b806001015434146106ac576040517f08c379a00000000000000000000000000000000000000000000000000000000081526004016106a390611634565b60405180910390fd5b8060030160149054906101000a900460ff16156106fe576040517f08c379a00000000000000000000000000000000000000000000000000000000081526004016106f5906116a0565b60405180910390fd5b8060020154421115610745576040517f08c379a000000000000000000000000000000000000000000000000000000000815260040161073c9061170c565b60405180910390fd5b60018160030160146101000a81548160ff02191690831515021790555034600260008360030160009054906101000a900473ffffffffffffffffffffffffffffffffffffffff1673ffffffffffffffffffffffffffffffffffffffff1673ffffffffffffffffffffffffffffffffffffffff16815260200190815260200160002060008282546107d5919061172c565b925050819055507fa98d610731dd88328fa591ff8c5d996137e7ff84df2f53c9fd497b9a57e3f02582333460405161080f93929190611760565b60405180910390a15050565b600160205280600052604060002060009150905080600001805461083e906111f8565b80601f016020809104026020016040519081016040528092919081815260200182805461086a906111f8565b80156108b75780601f1061088c576101008083540402835291602001916108b7565b820191906000526020600020905b81548152906001019060200180831161089a57829003601f168201915b5050505050908060010154908060020154908060030160009054906101000a900473ffffffffffffffffffffffffffffffffffffffff16908060030160149054906101000a900460ff16905085565b606060008060009054906101000a900463ffffffff1663ffffffff1667ffffffffffffffff81111561093b5761093a610d39565b5b6040519080825280602002602001820160405280156109695781602001602082028036833780820191505090505b509050600080600190505b60008054906101000a900463ffffffff1663ffffffff168163ffffffff1611610a9c578473ffffffffffffffffffffffffffffffffffffffff16600160008363ffffffff1663ffffffff16815260200190815260200160002060030160009054906101000a900473ffffffffffffffffffffffffffffffffffffffff1673ffffffffffffffffffffffffffffffffffffffff16148015610a415750600160008263ffffffff1663ffffffff16815260200190815260200160002060030160149054906101000a900460ff16155b15610a895780838363ffffffff1681518110610a6057610a5f611797565b5b602002602001019063ffffffff16908163ffffffff16815250508180610a859061119d565b9250505b8080610a949061119d565b915050610974565b5060008163ffffffff1667ffffffffffffffff811115610abf57610abe610d39565b5b604051908082528060200260200182016040528015610aed5781602001602082028036833780820191505090505b50905060005b8263ffffffff168163ffffffff161015610b6857838163ffffffff1681518110610b2057610b1f611797565b5b6020026020010151828263ffffffff1681518110610b4157610b40611797565b5b602002602001019063ffffffff16908163ffffffff16815250508080600101915050610af3565b50809350505050919050565b600073ffffffffffffffffffffffffffffffffffffffff82169050919050565b6000610b9f82610b74565b9050919050565b610baf81610b94565b82525050565b6000602082019050610bca6000830184610ba6565b92915050565b6000604051905090565b600080fd5b600080fd5b610bed81610b94565b8114610bf857600080fd5b50565b600081359050610c0a81610be4565b92915050565b600060208284031215610c2657610c25610bda565b5b6000610c3484828501610bfb565b91505092915050565b6000819050919050565b610c5081610c3d565b82525050565b6000602082019050610c6b6000830184610c47565b92915050565b600063ffffffff82169050919050565b610c8a81610c71565b8114610c9557600080fd5b50565b600081359050610ca781610c81565b92915050565b600060208284031215610cc357610cc2610bda565b5b6000610cd184828501610c98565b91505092915050565b60008115159050919050565b610cef81610cda565b82525050565b6000604082019050610d0a6000830185610ce6565b610d176020830184610c47565b9392505050565b600080fd5b600080fd5b6000601f19601f8301169050919050565b7f4e487b7100000000000000000000000000000000000000000000000000000000600052604160045260246000fd5b610d7182610d28565b810181811067ffffffffffffffff82111715610d9057610d8f610d39565b5b80604052505050565b6000610da3610bd0565b9050610daf8282610d68565b919050565b600067ffffffffffffffff821115610dcf57610dce610d39565b5b610dd882610d28565b9050602081019050919050565b82818337600083830152505050565b6000610e07610e0284610db4565b610d99565b905082815260208101848484011115610e2357610e22610d23565b5b610e2e848285610de5565b509392505050565b600082601f830112610e4b57610e4a610d1e565b5b8135610e5b848260208601610df4565b91505092915050565b610e6d81610c3d565b8114610e7857600080fd5b50565b600081359050610e8a81610e64565b92915050565b600080600060608486031215610ea957610ea8610bda565b5b600084013567ffffffffffffffff811115610ec757610ec6610bdf565b5b610ed386828701610e36565b9350506020610ee486828701610e7b565b9250506040610ef586828701610e7b565b9150509250925092565b600081519050919050565b600082825260208201905092915050565b60005b83811015610f39578082015181840152602081019050610f1e565b60008484015250505050565b6000610f5082610eff565b610f5a8185610f0a565b9350610f6a818560208601610f1b565b610f7381610d28565b840191505092915050565b6000610f8982610b74565b9050919050565b610f9981610f7e565b82525050565b600060a0820190508181036000830152610fb98188610f45565b9050610fc86020830187610c47565b610fd56040830186610c47565b610fe26060830185610f90565b610fef6080830184610ce6565b9695505050505050565b600081519050919050565b600082825260208201905092915050565b6000819050602082019050919050565b61102e81610c71565b82525050565b60006110408383611025565b60208301905092915050565b6000602082019050919050565b600061106482610ff9565b61106e8185611004565b935061107983611015565b8060005b838110156110aa5781516110918882611034565b975061109c8361104c565b92505060018101905061107d565b5085935050505092915050565b600060208201905081810360008301526110d18184611059565b905092915050565b7f496e73756666696369656e742062616c616e6365000000000000000000000000600082015250565b600061110f601483610f0a565b915061111a826110d9565b602082019050919050565b6000602082019050818103600083015261113e81611102565b9050919050565b600060408201905061115a6000830185610ba6565b6111676020830184610c47565b9392505050565b7f4e487b7100000000000000000000000000000000000000000000000000000000600052601160045260246000fd5b60006111a882610c71565b915063ffffffff82036111be576111bd61116e565b5b600182019050919050565b7f4e487b7100000000000000000000000000000000000000000000000000000000600052602260045260246000fd5b6000600282049050600182168061121057607f821691505b602082108103611223576112226111c9565b5b50919050565b60008190508160005260206000209050919050565b60006020601f8301049050919050565b600082821b905092915050565b60006008830261128b7fffffffffffffffffffffffffffffffffffffffffffffffffffffffffffffffff8261124e565b611295868361124e565b95508019841693508086168417925050509392505050565b6000819050919050565b60006112d26112cd6112c884610c3d565b6112ad565b610c3d565b9050919050565b6000819050919050565b6112ec836112b7565b6113006112f8826112d9565b84845461125b565b825550505050565b600090565b611315611308565b6113208184846112e3565b505050565b5b818110156113445761133960008261130d565b600181019050611326565b5050565b601f8211156113895761135a81611229565b6113638461123e565b81016020851015611372578190505b61138661137e8561123e565b830182611325565b50505b505050565b600082821c905092915050565b60006113ac6000198460080261138e565b1980831691505092915050565b60006113c5838361139b565b9150826002028217905092915050565b6113de82610eff565b67ffffffffffffffff8111156113f7576113f6610d39565b5b61140182546111f8565b61140c828285611348565b600060209050601f83116001811461143f576000841561142d578287015190505b61143785826113b9565b86555061149f565b601f19841661144d86611229565b60005b8281101561147557848901518255600182019150602085019450602081019050611450565b86831015611492578489015161148e601f89168261139b565b8355505b6001600288020188555050505b505050505050565b6114b081610c71565b82525050565b600060a0820190506114cb60008301886114a7565b81810360208301526114dd8187610f45565b90506114ec6040830186610c47565b6114f96060830185610c47565b6115066080830184610ba6565b9695505050505050565b7f4f6e6c792074686520636c69656e742063616e2070617920696e766f69636573600082015250565b6000611546602083610f0a565b915061155182611510565b602082019050919050565b6000602082019050818103600083015261157581611539565b9050919050565b7f496e766f69636520646f6573206e6f7420657869737400000000000000000000600082015250565b60006115b2601683610f0a565b91506115bd8261157c565b602082019050919050565b600060208201905081810360008301526115e1816115a5565b9050919050565b7f496e636f7272656374207061796d656e7420616d6f756e740000000000000000600082015250565b600061161e601883610f0a565b9150611629826115e8565b602082019050919050565b6000602082019050818103600083015261164d81611611565b9050919050565b7f496e766f69636520616c72656164792070616964000000000000000000000000600082015250565b600061168a601483610f0a565b915061169582611654565b602082019050919050565b600060208201905081810360008301526116b98161167d565b9050919050565b7f496e766f696365206973206f7665726475650000000000000000000000000000600082015250565b60006116f6601283610f0a565b9150611701826116c0565b602082019050919050565b60006020820190508181036000830152611725816116e9565b9050919050565b600061173782610c3d565b915061174283610c3d565b925082820190508082111561175a5761175961116e565b5b92915050565b600060608201905061177560008301866114a7565b6117826020830185610ba6565b61178f6040830184610c47565b949350505050565b7f4e487b7100000000000000000000000000000000000000000000000000000000600052603260045260246000fdfea264697066735822122028dd80db5e4cc7a28ba09bfd928a57af713657b847c87f8643895c4a7341c90864736f6c63430008180033",
  "linkReferences": {},
  "deployedLinkReferences": {}
}